{
    "_format": "hh-sol-artifact-1",
    "contractName": "CoffeePortal",
    "sourceName": "contracts/CoffeePortal.sol",
    "abi": [
        {
            "inputs": [],
            "stateMutability": "payable",
            "type": "constructor"
        },
        {
            "anonymous": false,
            "inputs": [
                {
                    "indexed": true,
                    "internalType": "address",
                    "name": "from",
                    "type": "address"
                },
                {
                    "indexed": false,
                    "internalType": "uint256",
                    "name": "timestamp",
                    "type": "uint256"
                },
                {
                    "indexed": false,
                    "internalType": "string",
                    "name": "message",
                    "type": "string"
                },
                {
                    "indexed": false,
                    "internalType": "string",
                    "name": "name",
                    "type": "string"
                }
            ],
            "name": "NewCoffee",
            "type": "event"
        },
        {
            "inputs": [
                {
                    "internalType": "string",
                    "name": "_message",
                    "type": "string"
                },
                {
                    "internalType": "string",
                    "name": "_name",
                    "type": "string"
                },
                {
                    "internalType": "uint256",
                    "name": "_payAmount",
                    "type": "uint256"
                }
            ],
            "name": "buyCoffee",
            "outputs": [],
            "stateMutability": "payable",
            "type": "function"
        },
        {
            "inputs": [],
            "name": "getAllCoffee",
            "outputs": [
                {
                    "components": [
                        {
                            "internalType": "address",
                            "name": "giver",
                            "type": "address"
                        },
                        {
                            "internalType": "string",
                            "name": "message",
                            "type": "string"
                        },
                        {
                            "internalType": "string",
                            "name": "name",
                            "type": "string"
                        },
                        {
                            "internalType": "uint256",
                            "name": "timestamp",
                            "type": "uint256"
                        }
                    ],
                    "internalType": "struct CoffeePortal.Coffee[]",
                    "name": "",
                    "type": "tuple[]"
                }
            ],
            "stateMutability": "view",
            "type": "function"
        },
        {
            "inputs": [],
            "name": "getTotalCoffee",
            "outputs": [
                {
                    "internalType": "uint256",
                    "name": "",
                    "type": "uint256"
                }
            ],
            "stateMutability": "view",
            "type": "function"
        },
        {
            "inputs": [],
            "name": "owner",
            "outputs": [
                {
                    "internalType": "address payable",
                    "name": "",
                    "type": "address"
                }
            ],
            "stateMutability": "view",
            "type": "function"
        }
    ],
    "bytecode": "0x60806040526200004f6040518060400160405280601281526020017f596f2120536d61727420436f6e747261637400000000000000000000000000008152506200009660201b620005d51760201c565b33600160006101000a81548173ffffffffffffffffffffffffffffffffffffffff021916908373ffffffffffffffffffffffffffffffffffffffff1602179055506200022a565b6200013681604051602401620000ad919062000206565b6040516020818303038152906040527f41304fac000000000000000000000000000000000000000000000000000000007bffffffffffffffffffffffffffffffffffffffffffffffffffffffff19166020820180517bffffffffffffffffffffffffffffffffffffffffffffffffffffffff83818316178352505050506200013960201b60201c565b50565b60008151905060006a636f6e736f6c652e6c6f679050602083016000808483855afa5050505050565b600081519050919050565b600082825260208201905092915050565b60005b838110156200019e57808201518184015260208101905062000181565b83811115620001ae576000848401525b50505050565b6000601f19601f8301169050919050565b6000620001d28262000162565b620001de81856200016d565b9350620001f08185602086016200017e565b620001fb81620001b4565b840191505092915050565b60006020820190508181036000830152620002228184620001c5565b905092915050565b611094806200023a6000396000f3fe60806040526004361061003f5760003560e01c8063441315c5146100445780634839ee3f146100605780638da5cb5b1461008b578063d386beca146100b6575b600080fd5b61005e60048036038101906100599190610a02565b6100e1565b005b34801561006c57600080fd5b5061007561039e565b6040516100829190610a9c565b60405180910390f35b34801561009757600080fd5b506100a06103cc565b6040516100ad9190610af8565b60405180910390f35b3480156100c257600080fd5b506100cb6103f2565b6040516100d89190610cf7565b60405180910390f35b600066038d7ea4c68000905080821115610130576040517f08c379a000000000000000000000000000000000000000000000000000000000815260040161012790610d76565b60405180910390fd5b60016000808282546101429190610dc5565b925050819055506101886040518060400160405280601a81526020017f257320686173206a7573742073656e74206120636f66666565210000000000008152503361066e565b600260405180608001604052803373ffffffffffffffffffffffffffffffffffffffff16815260200186815260200185815260200142815250908060018154018082558091505060019003906000526020600020906004020160009091909190915060008201518160000160006101000a81548173ffffffffffffffffffffffffffffffffffffffff021916908373ffffffffffffffffffffffffffffffffffffffff160217905550602082015181600101908051906020019061024d9291906107cf565b50604082015181600201908051906020019061026a9291906107cf565b506060820151816003015550506000600160009054906101000a900473ffffffffffffffffffffffffffffffffffffffff1673ffffffffffffffffffffffffffffffffffffffff16836040516102bf90610e4c565b60006040518083038185875af1925050503d80600081146102fc576040519150601f19603f3d011682016040523d82523d6000602084013e610301565b606091505b5050905080610345576040517f08c379a000000000000000000000000000000000000000000000000000000000815260040161033c90610ead565b60405180910390fd5b3373ffffffffffffffffffffffffffffffffffffffff167f5d202edb9ac9aca913189e3c829f7fdbba23859e91379c70ecf7874fe39632a742878760405161038f93929190610f06565b60405180910390a25050505050565b60006103c460405180606001604052806021815260200161103e6021913960005461070a565b600054905090565b600160009054906101000a900473ffffffffffffffffffffffffffffffffffffffff1681565b60606002805480602002602001604051908101604052809291908181526020016000905b828210156105cc57838290600052602060002090600402016040518060800160405290816000820160009054906101000a900473ffffffffffffffffffffffffffffffffffffffff1673ffffffffffffffffffffffffffffffffffffffff1673ffffffffffffffffffffffffffffffffffffffff16815260200160018201805461049f90610f7a565b80601f01602080910402602001604051908101604052809291908181526020018280546104cb90610f7a565b80156105185780601f106104ed57610100808354040283529160200191610518565b820191906000526020600020905b8154815290600101906020018083116104fb57829003601f168201915b5050505050815260200160028201805461053190610f7a565b80601f016020809104026020016040519081016040528092919081815260200182805461055d90610f7a565b80156105aa5780601f1061057f576101008083540402835291602001916105aa565b820191906000526020600020905b81548152906001019060200180831161058d57829003601f168201915b5050505050815260200160038201548152505081526020019060010190610416565b50505050905090565b61066b816040516024016105e99190610fac565b6040516020818303038152906040527f41304fac000000000000000000000000000000000000000000000000000000007bffffffffffffffffffffffffffffffffffffffffffffffffffffffff19166020820180517bffffffffffffffffffffffffffffffffffffffffffffffffffffffff83818316178352505050506107a6565b50565b6107068282604051602401610684929190610fdd565b6040516020818303038152906040527f319af333000000000000000000000000000000000000000000000000000000007bffffffffffffffffffffffffffffffffffffffffffffffffffffffff19166020820180517bffffffffffffffffffffffffffffffffffffffffffffffffffffffff83818316178352505050506107a6565b5050565b6107a2828260405160240161072092919061100d565b6040516020818303038152906040527f9710a9d0000000000000000000000000000000000000000000000000000000007bffffffffffffffffffffffffffffffffffffffffffffffffffffffff19166020820180517bffffffffffffffffffffffffffffffffffffffffffffffffffffffff83818316178352505050506107a6565b5050565b60008151905060006a636f6e736f6c652e6c6f679050602083016000808483855afa5050505050565b8280546107db90610f7a565b90600052602060002090601f0160209004810192826107fd5760008555610844565b82601f1061081657805160ff1916838001178555610844565b82800160010185558215610844579182015b82811115610843578251825591602001919060010190610828565b5b5090506108519190610855565b5090565b5b8082111561086e576000816000905550600101610856565b5090565b6000604051905090565b600080fd5b600080fd5b600080fd5b600080fd5b6000601f19601f8301169050919050565b7f4e487b7100000000000000000000000000000000000000000000000000000000600052604160045260246000fd5b6108d982610890565b810181811067ffffffffffffffff821117156108f8576108f76108a1565b5b80604052505050565b600061090b610872565b905061091782826108d0565b919050565b600067ffffffffffffffff821115610937576109366108a1565b5b61094082610890565b9050602081019050919050565b82818337600083830152505050565b600061096f61096a8461091c565b610901565b90508281526020810184848401111561098b5761098a61088b565b5b61099684828561094d565b509392505050565b600082601f8301126109b3576109b2610886565b5b81356109c384826020860161095c565b91505092915050565b6000819050919050565b6109df816109cc565b81146109ea57600080fd5b50565b6000813590506109fc816109d6565b92915050565b600080600060608486031215610a1b57610a1a61087c565b5b600084013567ffffffffffffffff811115610a3957610a38610881565b5b610a458682870161099e565b935050602084013567ffffffffffffffff811115610a6657610a65610881565b5b610a728682870161099e565b9250506040610a83868287016109ed565b9150509250925092565b610a96816109cc565b82525050565b6000602082019050610ab16000830184610a8d565b92915050565b600073ffffffffffffffffffffffffffffffffffffffff82169050919050565b6000610ae282610ab7565b9050919050565b610af281610ad7565b82525050565b6000602082019050610b0d6000830184610ae9565b92915050565b600081519050919050565b600082825260208201905092915050565b6000819050602082019050919050565b6000610b4a82610ab7565b9050919050565b610b5a81610b3f565b82525050565b600081519050919050565b600082825260208201905092915050565b60005b83811015610b9a578082015181840152602081019050610b7f565b83811115610ba9576000848401525b50505050565b6000610bba82610b60565b610bc48185610b6b565b9350610bd4818560208601610b7c565b610bdd81610890565b840191505092915050565b610bf1816109cc565b82525050565b6000608083016000830151610c0f6000860182610b51565b5060208301518482036020860152610c278282610baf565b91505060408301518482036040860152610c418282610baf565b9150506060830151610c566060860182610be8565b508091505092915050565b6000610c6d8383610bf7565b905092915050565b6000602082019050919050565b6000610c8d82610b13565b610c978185610b1e565b935083602082028501610ca985610b2f565b8060005b85811015610ce55784840389528151610cc68582610c61565b9450610cd183610c75565b925060208a01995050600181019050610cad565b50829750879550505050505092915050565b60006020820190508181036000830152610d118184610c82565b905092915050565b600082825260208201905092915050565b7f496e73756666696369656e742045746865722070726f76696465640000000000600082015250565b6000610d60601b83610d19565b9150610d6b82610d2a565b602082019050919050565b60006020820190508181036000830152610d8f81610d53565b9050919050565b7f4e487b7100000000000000000000000000000000000000000000000000000000600052601160045260246000fd5b6000610dd0826109cc565b9150610ddb836109cc565b9250827fffffffffffffffffffffffffffffffffffffffffffffffffffffffffffffffff03821115610e1057610e0f610d96565b5b828201905092915050565b600081905092915050565b50565b6000610e36600083610e1b565b9150610e4182610e26565b600082019050919050565b6000610e5782610e29565b9150819050919050565b7f4661696c656420746f2073656e64206d6f6e6579000000000000000000000000600082015250565b6000610e97601483610d19565b9150610ea282610e61565b602082019050919050565b60006020820190508181036000830152610ec681610e8a565b9050919050565b6000610ed882610b60565b610ee28185610d19565b9350610ef2818560208601610b7c565b610efb81610890565b840191505092915050565b6000606082019050610f1b6000830186610a8d565b8181036020830152610f2d8185610ecd565b90508181036040830152610f418184610ecd565b9050949350505050565b7f4e487b7100000000000000000000000000000000000000000000000000000000600052602260045260246000fd5b60006002820490506001821680610f9257607f821691505b60208210811415610fa657610fa5610f4b565b5b50919050565b60006020820190508181036000830152610fc68184610ecd565b905092915050565b610fd781610b3f565b82525050565b60006040820190508181036000830152610ff78185610ecd565b90506110066020830184610fce565b9392505050565b600060408201905081810360008301526110278185610ecd565b90506110366020830184610a8d565b939250505056fe5765206861766520256420746f74616c20636f6666656520726563696576656420a26469706673582212204062ea714a5b9d4589cdd9329405e0631569959b2ad6f3435333dcf5ebf8d60664736f6c63430008090033",
    "linkReferences": {},
    "deployedLinkReferences": {}
}